:100000000C942A000C9447000C9447000C94470071
:100010000C9447000C9447000C9447000C94470044
:100020000C9447000C9447000C9447000C94DB029E
:100030000C9447000C9447000C9447000C94470024
:100040000C9447000C9447000C9447000C94470014
:100050000C94470011241FBECFE5D8E0DEBFCDBF12
:1000600010E0A0E6B0E0E8E4F7E002C005900D92F1
:10007000AC39B107D9F720E0ACE9B0E001C01D927E
:10008000A13AB207E1F70E9412020C94A2030C9469
:10009000000084B3806F84BB8FEF85BB089585B368
:1000A0008F7E85BB85B3806285BB85B3806485BB4D
:1000B00085B3806885BB989B5CC0999B5CC09A9B0C
:1000C0005CC09B9B5CC08FE19EE40197F1F700C090
:1000D000000085B3806185BB85B38F7D85BB85B30B
:1000E000806485BB85B3806885BB989B4AC0999B1B
:1000F0004AC09A9B4AC09B9B4AC08FE19EE40197ED
:10010000F1F700C0000085B3806185BB85B38062D4
:1001100085BB85B38F7B85BB85B3806885BB989B8A
:1001200038C0999B38C09A9B38C09B9B38C08FE1E0
:100130009EE40197F1F700C0000085B3806185BBA4
:1001400085B3806285BB85B3806485BB85B38F77BB
:1001500085BB989B26C0999B26C09A9B26C09B9BDB
:1001600026C08FE19EE40197F1F700C000008FEFF9
:10017000089587E3089588E3089589E308958FE259
:10018000089584E3089585E3089586E308958AE257
:10019000089581E3089582E3089583E308958DE24D
:1001A000089583E6089580E308958DE308958BE232
:1001B00008959BB394609BBB84FF04C09BB3906184
:1001C0009BBB03C09BB39F7E9BBB85FF04C09BB3BF
:1001D00090629BBB03C09BB39F7D9BBB86FF04C00B
:1001E0009BB390649BBB03C09BB39F7B9BBB88234B
:1001F00024F49BB390689BBB03C09BB39F779BBBCE
:100200009BB398609BBBEFE9FFE03197F1F700C02B
:1002100000009BB3977F9BBBEFE9FFE03197F1F7BD
:1002200000C0000080FF04C09BB390619BBB03C073
:100230009BB39F7E9BBB81FF04C09BB390629BBB23
:1002400003C09BB39F7D9BBB82FF04C09BB39064A4
:100250009BBB03C09BB39F7B9BBB83FF04C08BB343
:1002600080688BBB03C08BB38F778BBB8BB38860ED
:100270008BBB8FE99FE00197F1F700C000008BB3C3
:10028000877F8BBBEFE9FFE03197F1F700C00000FB
:1002900008959BB39B7F9BBB84FF04C09BB390617D
:1002A0009BBB03C09BB39F7E9BBB85FF04C09BB3DE
:1002B00090629BBB03C09BB39F7D9BBB86FF04C02A
:1002C0009BB390649BBB03C09BB39F7B9BBB88236A
:1002D00024F49BB390689BBB03C09BB39F779BBBED
:1002E0009BB398609BBBEFE9FFE03197F1F700C04B
:1002F00000009BB3977F9BBBEFE9FFE03197F1F7DD
:1003000000C0000080FF04C09BB390619BBB03C092
:100310009BB39F7E9BBB81FF04C09BB390629BBB42
:1003200003C09BB39F7D9BBB82FF04C09BB39064C3
:100330009BBB03C09BB39F7B9BBB83FF04C08BB362
:1003400080688BBB03C08BB38F778BBB8BB388600C
:100350008BBB8FE99FE00197F1F700C000008BB3E2
:10036000877F8BBBEFE9FFE03197F1F700C000001A
:1003700008958AB38C6F8ABB83E00E9449018FE79E
:100380009EE30197F1F700C0000083E00E9449015D
:100390008FE79EE30197F1F700C0000083E00E9421
:1003A00049018FE79EE30197F1F700C0000082E06A
:1003B0000E94490188E20E94490181E00E944901AE
:1003C00086E00E9449018CE00E9449019FEF29EFDD
:1003D00080E0915020408040E1F700C00000089587
:1003E0000F931F93CF938C01C0E003C00E94D900EC
:1003F000CF5FF801EC0FF11D80818111F7CFCF9114
:100400001F910F910895CF930E944F00C82F8F3FE7
:10041000D9F30E94D9000E944F008F3FE1F78C2F43
:10042000CF9108950E94B9010E9416030E944900CD
:100430000E94990381E00E9449018AE690E00E94AF
:10044000F00180EC0E94490185E790E00E94F001F4
:100450008EE00E9449018091A000CDEC8C9F812DFF
:10046000112465E08695869586950E943E038091CD
:10047000A0008C9F912D1124969596959695990F95
:10048000292F220F220F920F66E0891B0E943E0344
:1004900080919F008C9F812D112463E08695869525
:1004A00086950E943E0380919F008C9F912D112480
:1004B000969596959695990F292F220F220F920FB8
:1004C00064E0891B0E943E0380919E008C9F812DD9
:1004D000112461E08695869586950E943E03809161
:1004E0009E008C9FC12D1124C695C695C695CC0F34
:1004F0009C2F990F990FC90F62E08C1B0E943E033D
:100500000E944F00813309F0A6CF0E944F008F3F19
:10051000E1F781E00E9449018FE790E00E94F0013D
:100520000E94030290E0C097880F982F990F990FAF
:10053000890F80939E000E94030290E0C0979091E3
:100540009E00890F80939E0081E00E94490187E808
:1005500090E00E94F0010E94030290E0C097880F93
:10056000982F990F990F890F80939F000E94030283
:1005700090E0C09790919F00890F80939F0081E049
:100580000E94490181E990E00E94F0010E9403026B
:1005900090E0C097880F982F990F990F890F80933B
:1005A000A0000E94030290E0C0979091A000890FE4
:1005B0008093A0003FCF1F920F920FB60F9211248D
:1005C0002F938F939F9380919C0090919D00019613
:1005D00090939D0080939C008432944FF9F4109284
:1005E0009D0010929C008091A0008F5F8093A000DE
:1005F0008C33A1F41092A00080919F008F5F8093B4
:100600009F008C3359F410929F0080919E008F5F61
:1006100080939E00883111F410929E009F918F91DB
:100620002F910F900FBE0F901F90189581B38F6779
:1006300081BB8FE782BB87B3816087BB87B3826052
:1006400087BB87B3846087BB87B3886087BB87B36A
:10065000806187BB87B3806287BB87B3806487BBB9
:1006600080E009C0E82FF0E0E05AFF4F20819FE7CB
:10067000922790838F5F8A30A8F3089598B39E7F66
:1006800098BB98B39D7F98BB98B39B7F98BB98B35A
:10069000977F98BB98B39F7E98BB98B39F7D98BB7C
:1006A0006330D1F028F4613049F0623071F02FC02E
:1006B000653001F1C0F0663021F129C098B3916036
:1006C00098BB98B3906498BB22C098B3926098BBD3
:1006D00098B39F7B98BB1BC098B3946098BB98B3AA
:1006E000906498BB14C098B3986098BB98B39F7BF4
:1006F00098BB0DC098B3906198BB98B3906498BBB9
:1007000006C098B3906298BB98B3906498BB92B3BC
:10071000907892BB92B3E82FF0E0E05AFF4F8081CF
:10072000892B82BB8FE99FE00197F1F700C00000A1
:10073000089581E883BF89B7816089BF8FB78068DA
:080740008FBF0895F894FFCF6C
:100748003F065B4F666D7D077F6F50726573732040
:100758003120746F0073657420636C6F636B00489D
:100768006F7572733A20004D696E757465733A201F
:0C077800005365636F6E64733A2000004C
:00000001FF
